{
  "contractName": "SimpleStorage",
  "abi": [
    {
      "constant": false,
      "inputs": [
        {
          "name": "_name",
          "type": "string"
        },
        {
          "name": "_ipfsHash",
          "type": "string"
        }
      ],
      "name": "registerRefugee",
      "outputs": [],
      "payable": false,
      "stateMutability": "nonpayable",
      "type": "function"
    },
    {
      "constant": true,
      "inputs": [
        {
          "name": "_ipfsHash",
          "type": "string"
        }
      ],
      "name": "getRefugeeByFaceHash",
      "outputs": [
        {
          "name": "name",
          "type": "string"
        },
        {
          "name": "hash",
          "type": "string"
        }
      ],
      "payable": false,
      "stateMutability": "view",
      "type": "function"
    },
    {
      "constant": true,
      "inputs": [],
      "name": "getAllFaceHashes",
      "outputs": [
        {
          "name": "",
          "type": "string[]"
        }
      ],
      "payable": false,
      "stateMutability": "view",
      "type": "function"
    }
  ],
  "bytecode": "0x608060405234801561001057600080fd5b50610b9f806100206000396000f3fe608060405260043610610051576000357c01000000000000000000000000000000000000000000000000000000009004806355da1bea1461005657806383a03d5e1461009457806388aeb4ef146100bd575b600080fd5b34801561006257600080fd5b5061007d60048036036100789190810190610799565b6100e8565b60405161008b9291906109e7565b60405180910390f35b3480156100a057600080fd5b506100bb60048036036100b691908101906107da565b6102c9565b005b3480156100c957600080fd5b506100d261051b565b6040516100df91906109c5565b60405180910390f35b6060806100f3610604565b6000846040518082805190602001908083835b60208310151561012b5780518252602082019150602081019050602083039250610106565b6001836020036101000a0380198251168184511680821785525050505050509050019150509081526020016040518091039020604080519081016040529081600082018054600181600116156101000203166002900480601f0160208091040260200160405190810160405280929190818152602001828054600181600116156101000203166002900480156102025780601f106101d757610100808354040283529160200191610202565b820191906000526020600020905b8154815290600101906020018083116101e557829003601f168201915b50505050508152602001600182018054600181600116156101000203166002900480601f0160208091040260200160405190810160405280929190818152602001828054600181600116156101000203166002900480156102a45780601f10610279576101008083540402835291602001916102a4565b820191906000526020600020905b81548152906001019060200180831161028757829003601f168201915b5050505050815250509050806000015181602001518191508090509250925050915091565b6000825111151561030f576040517f08c379a000000000000000000000000000000000000000000000000000000000815260040161030690610a1e565b60405180910390fd5b60008151111515610355576040517f08c379a000000000000000000000000000000000000000000000000000000000815260040161034c90610a3e565b60405180910390fd5b600080826040518082805190602001908083835b60208310151561038e5780518252602082019150602081019050602083039250610369565b6001836020036101000a038019825116818451168082178552505050505050905001915050908152602001604051809103902060010180546001816001161561010002031660029004905014151561041b576040517f08c379a000000000000000000000000000000000000000000000000000000000815260040161041290610a5e565b60405180910390fd5b6040805190810160405280838152602001828152506000826040518082805190602001908083835b6020831015156104685780518252602082019150602081019050602083039250610443565b6001836020036101000a038019825116818451168082178552505050505050905001915050908152602001604051809103902060008201518160000190805190602001906104b792919061061e565b5060208201518160010190805190602001906104d492919061061e565b50905050600181908060018154018082558091505090600182039060005260206000200160009091929091909150908051906020019061051592919061069e565b50505050565b60606001805480602002602001604051908101604052809291908181526020016000905b828210156105fb578382906000526020600020018054600181600116156101000203166002900480601f0160208091040260200160405190810160405280929190818152602001828054600181600116156101000203166002900480156105e75780601f106105bc576101008083540402835291602001916105e7565b820191906000526020600020905b8154815290600101906020018083116105ca57829003601f168201915b50505050508152602001906001019061053f565b50505050905090565b604080519081016040528060608152602001606081525090565b828054600181600116156101000203166002900490600052602060002090601f016020900481019282601f1061065f57805160ff191683800117855561068d565b8280016001018555821561068d579182015b8281111561068c578251825591602001919060010190610671565b5b50905061069a919061071e565b5090565b828054600181600116156101000203166002900490600052602060002090601f016020900481019282601f106106df57805160ff191683800117855561070d565b8280016001018555821561070d579182015b8281111561070c5782518255916020019190600101906106f1565b5b50905061071a919061071e565b5090565b61074091905b8082111561073c576000816000905550600101610724565b5090565b90565b600082601f830112151561075657600080fd5b813561076961076482610aab565b610a7e565b9150808252602083016020830185838301111561078557600080fd5b610790838284610b12565b50505092915050565b6000602082840312156107ab57600080fd5b600082013567ffffffffffffffff8111156107c557600080fd5b6107d184828501610743565b91505092915050565b600080604083850312156107ed57600080fd5b600083013567ffffffffffffffff81111561080757600080fd5b61081385828601610743565b925050602083013567ffffffffffffffff81111561083057600080fd5b61083c85828601610743565b9150509250929050565b600061085182610ae4565b8084526020840193508360208202850161086a85610ad7565b60005b848110156108a35783830388526108858383516108ea565b925061089082610b05565b915060208801975060018101905061086d565b508196508694505050505092915050565b60006108bf82610afa565b8084526108d3816020860160208601610b21565b6108dc81610b54565b602085010191505092915050565b60006108f582610aef565b808452610909816020860160208601610b21565b61091281610b54565b602085010191505092915050565b6000601482527f4e616d652063616e6e6f7420626520656d7074790000000000000000000000006020830152604082019050919050565b6000601982527f4950465320686173682063616e6e6f7420626520656d707479000000000000006020830152604082019050919050565b6000601a82527f5265667567656520616c726561647920726567697374657265640000000000006020830152604082019050919050565b600060208201905081810360008301526109df8184610846565b905092915050565b60006040820190508181036000830152610a0181856108b4565b90508181036020830152610a1581846108b4565b90509392505050565b60006020820190508181036000830152610a3781610920565b9050919050565b60006020820190508181036000830152610a5781610957565b9050919050565b60006020820190508181036000830152610a778161098e565b9050919050565b6000604051905081810181811067ffffffffffffffff82111715610aa157600080fd5b8060405250919050565b600067ffffffffffffffff821115610ac257600080fd5b601f19601f8301169050602081019050919050565b6000602082019050919050565b600081519050919050565b600081519050919050565b600081519050919050565b6000602082019050919050565b82818337600083830152505050565b60005b83811015610b3f578082015181840152602081019050610b24565b83811115610b4e576000848401525b50505050565b6000601f19601f830116905091905056fea265627a7a72305820f4c488f599ea199e72114442bbabdb1b862fcf67541fed57b25979e7229635766c6578706572696d656e74616cf50037",
  "source": "// SPDX-License-Identifier: MIT\r\npragma solidity >=0.4.22 <0.9.0;\r\npragma experimental ABIEncoderV2;\r\n\r\ncontract SimpleStorage {\r\n    struct Refugee {\r\n        string name;\r\n        string ipfsHash; // Face descriptor stored in IPFS\r\n    }\r\n\r\n    // Mapping: face hash (CID) => refugee details\r\n    mapping(string => Refugee) private refugees;\r\n\r\n    // List of all registered face hashes\r\n    string[] private registeredFaceHashes;\r\n\r\n    // Register a refugee using IPFS hash as key\r\n    function registerRefugee(string memory _name, string memory _ipfsHash) public {\r\n        require(bytes(_name).length > 0, \"Name cannot be empty\");\r\n        require(bytes(_ipfsHash).length > 0, \"IPFS hash cannot be empty\");\r\n        require(bytes(refugees[_ipfsHash].ipfsHash).length == 0, \"Refugee already registered\");\r\n\r\n        refugees[_ipfsHash] = Refugee(_name, _ipfsHash);\r\n        registeredFaceHashes.push(_ipfsHash);\r\n    }\r\n\r\n    // Get refugee details by face hash\r\n    function getRefugeeByFaceHash(string memory _ipfsHash) public view returns (string memory name, string memory hash) {\r\n        Refugee memory r = refugees[_ipfsHash];\r\n        return (r.name, r.ipfsHash);\r\n    }\r\n\r\n    // Return all registered face hashes\r\n    function getAllFaceHashes() public view returns (string[] memory) {\r\n        return registeredFaceHashes;\r\n    }\r\n}\r\n",
  "sourcePath": "C:\\Users\\loges\\Verify-ID-Using-Face-API-ReactJs\\id-verification\\contracts\\SimpleStorage.sol",
  "compiler": {
    "name": "solc",
    "version": "0.5.1+commit.c8a2cb62.Emscripten.clang"
  },
  "schemaVersion": "3.4.16",
  "updatedAt": "2025-04-05T16:07:29.719Z",
  "networkType": "ethereum",
  "devdoc": {
    "methods": {}
  },
  "userdoc": {
    "methods": {}
  }
}