{
  "contractName": "RefugeeBiometric",
  "abi": [
    {
      "inputs": [
        {
          "internalType": "address",
          "name": "_verifier",
          "type": "address"
        }
      ],
      "stateMutability": "nonpayable",
      "type": "constructor"
    },
    {
      "anonymous": false,
      "inputs": [
        {
          "indexed": true,
          "internalType": "uint256",
          "name": "id",
          "type": "uint256"
        },
        {
          "indexed": false,
          "internalType": "bytes32",
          "name": "fuzzyHash",
          "type": "bytes32"
        },
        {
          "indexed": false,
          "internalType": "string",
          "name": "ipfsCID",
          "type": "string"
        }
      ],
      "name": "Registered",
      "type": "event"
    },
    {
      "anonymous": false,
      "inputs": [
        {
          "indexed": true,
          "internalType": "uint256",
          "name": "id",
          "type": "uint256"
        },
        {
          "indexed": false,
          "internalType": "address",
          "name": "officer",
          "type": "address"
        }
      ],
      "name": "SuspectMarked",
      "type": "event"
    },
    {
      "inputs": [],
      "name": "admin",
      "outputs": [
        {
          "internalType": "address",
          "name": "",
          "type": "address"
        }
      ],
      "stateMutability": "view",
      "type": "function",
      "constant": true
    },
    {
      "inputs": [
        {
          "internalType": "bytes32",
          "name": "",
          "type": "bytes32"
        }
      ],
      "name": "fuzzyHashes",
      "outputs": [
        {
          "internalType": "bool",
          "name": "",
          "type": "bool"
        }
      ],
      "stateMutability": "view",
      "type": "function",
      "constant": true
    },
    {
      "inputs": [
        {
          "internalType": "address",
          "name": "",
          "type": "address"
        }
      ],
      "name": "officers",
      "outputs": [
        {
          "internalType": "bool",
          "name": "",
          "type": "bool"
        }
      ],
      "stateMutability": "view",
      "type": "function",
      "constant": true
    },
    {
      "inputs": [],
      "name": "refugeeCount",
      "outputs": [
        {
          "internalType": "uint256",
          "name": "",
          "type": "uint256"
        }
      ],
      "stateMutability": "view",
      "type": "function",
      "constant": true
    },
    {
      "inputs": [
        {
          "internalType": "uint256",
          "name": "",
          "type": "uint256"
        }
      ],
      "name": "refugees",
      "outputs": [
        {
          "internalType": "uint256",
          "name": "id",
          "type": "uint256"
        },
        {
          "internalType": "bytes32",
          "name": "fuzzyHash",
          "type": "bytes32"
        },
        {
          "internalType": "string",
          "name": "ipfsCID",
          "type": "string"
        },
        {
          "internalType": "bool",
          "name": "isSuspect",
          "type": "bool"
        },
        {
          "internalType": "bytes32",
          "name": "zkpCommitment",
          "type": "bytes32"
        }
      ],
      "stateMutability": "view",
      "type": "function",
      "constant": true
    },
    {
      "inputs": [],
      "name": "verifier",
      "outputs": [
        {
          "internalType": "contract IVerifier",
          "name": "",
          "type": "address"
        }
      ],
      "stateMutability": "view",
      "type": "function",
      "constant": true
    },
    {
      "inputs": [
        {
          "internalType": "address",
          "name": "_officer",
          "type": "address"
        }
      ],
      "name": "addOfficer",
      "outputs": [],
      "stateMutability": "nonpayable",
      "type": "function"
    },
    {
      "inputs": [
        {
          "internalType": "bytes32",
          "name": "_fuzzyHash",
          "type": "bytes32"
        },
        {
          "internalType": "string",
          "name": "_ipfsCID",
          "type": "string"
        },
        {
          "internalType": "bytes32",
          "name": "_commitment",
          "type": "bytes32"
        }
      ],
      "name": "register",
      "outputs": [],
      "stateMutability": "nonpayable",
      "type": "function"
    },
    {
      "inputs": [
        {
          "internalType": "uint256",
          "name": "_id",
          "type": "uint256"
        }
      ],
      "name": "markSuspect",
      "outputs": [],
      "stateMutability": "nonpayable",
      "type": "function"
    },
    {
      "inputs": [
        {
          "internalType": "uint256",
          "name": "_id",
          "type": "uint256"
        },
        {
          "internalType": "uint256[2]",
          "name": "a",
          "type": "uint256[2]"
        },
        {
          "internalType": "uint256[2][2]",
          "name": "b",
          "type": "uint256[2][2]"
        },
        {
          "internalType": "uint256[2]",
          "name": "c",
          "type": "uint256[2]"
        },
        {
          "internalType": "uint256[2]",
          "name": "input",
          "type": "uint256[2]"
        }
      ],
      "name": "verifyProof",
      "outputs": [
        {
          "internalType": "bool",
          "name": "",
          "type": "bool"
        }
      ],
      "stateMutability": "view",
      "type": "function",
      "constant": true
    }
  ],
  "bytecode": "0x60806040523480156200001157600080fd5b50604051620014dc380380620014dc83398181016040528101906200003791906200014a565b600073ffffffffffffffffffffffffffffffffffffffff168173ffffffffffffffffffffffffffffffffffffffff161415620000aa576040517f08c379a0000000000000000000000000000000000000000000000000000000008152600401620000a190620001b8565b60405180910390fd5b33600360006101000a81548173ffffffffffffffffffffffffffffffffffffffff021916908373ffffffffffffffffffffffffffffffffffffffff16021790555080600460006101000a81548173ffffffffffffffffffffffffffffffffffffffff021916908373ffffffffffffffffffffffffffffffffffffffff1602179055505062000239565b60008151905062000144816200021f565b92915050565b6000602082840312156200015d57600080fd5b60006200016d8482850162000133565b91505092915050565b600062000185601883620001da565b91507f496e76616c6964207665726966696572206164647265737300000000000000006000830152602082019050919050565b60006020820190508181036000830152620001d38162000176565b9050919050565b600082825260208201905092915050565b6000620001f882620001ff565b9050919050565b600073ffffffffffffffffffffffffffffffffffffffff82169050919050565b6200022a81620001eb565b81146200023657600080fd5b50565b61129380620002496000396000f3fe608060405234801561001057600080fd5b506004361061009e5760003560e01c80639a180f7e116100665780639a180f7e1461016d578063d9803cb2146101a1578063e44f6204146101bd578063e4b0f13e146101d9578063f851a440146101f75761009e565b8063084866dd146100a35780632b7ac3f3146100d357806353a7e9d4146100f157806355bf94fc146101215780636a0cf51a1461013d575b600080fd5b6100bd60048036038101906100b89190610a7b565b610215565b6040516100ca9190610eae565b60405180910390f35b6100db610235565b6040516100e89190610efb565b60405180910390f35b61010b60048036038101906101069190610b8b565b61025b565b6040516101189190610eae565b60405180910390f35b61013b60048036038101906101369190610af6565b6103b1565b005b61015760048036038101906101529190610acd565b610607565b6040516101649190610eae565b60405180910390f35b61018760048036038101906101829190610b62565b610627565b604051610198959493929190610fb1565b60405180910390f35b6101bb60048036038101906101b69190610a7b565b6106f2565b005b6101d760048036038101906101d29190610b62565b6107dd565b005b6101e16108d2565b6040516101ee9190610f96565b60405180910390f35b6101ff6108d8565b60405161020c9190610e4c565b60405180910390f35b60026020528060005260406000206000915054906101000a900460ff1681565b600460009054906101000a900473ffffffffffffffffffffffffffffffffffffffff1681565b60008060008781526020019081526020016000206004015460001c826000600281106102b0577f4e487b7100000000000000000000000000000000000000000000000000000000600052603260045260246000fd5b6020020135146102f5576040517f08c379a00000000000000000000000000000000000000000000000000000000081526004016102ec90610f36565b60405180910390fd5b600460009054906101000a900473ffffffffffffffffffffffffffffffffffffffff1673ffffffffffffffffffffffffffffffffffffffff1663f5c9d69e868686866040518563ffffffff1660e01b81526004016103569493929190610e67565b60206040518083038186803b15801561036e57600080fd5b505afa158015610382573d6000803e3d6000fd5b505050506040513d601f19601f820116820180604052508101906103a69190610aa4565b905095945050505050565b600260003373ffffffffffffffffffffffffffffffffffffffff1673ffffffffffffffffffffffffffffffffffffffff16815260200190815260200160002060009054906101000a900460ff1661043d576040517f08c379a000000000000000000000000000000000000000000000000000000000815260040161043490610f56565b60405180910390fd5b6001600085815260200190815260200160002060009054906101000a900460ff161561049e576040517f08c379a000000000000000000000000000000000000000000000000000000000815260040161049590610f16565b60405180910390fd5b600560008154809291906104b190611149565b91905055506040518060a00160405280600554815260200185815260200184848080601f016020809104026020016040519081016040528093929190818152602001838380828437600081840152601f19601f8201169050808301925050505050505081526020016000151581526020018281525060008060055481526020019081526020016000206000820151816000015560208201518160010155604082015181600201908051906020019061056a9291906108fe565b5060608201518160030160006101000a81548160ff02191690831515021790555060808201518160040155905050600180600086815260200190815260200160002060006101000a81548160ff0219169083151502179055506005547ffd8e67ab83331d34a6748dcd1611c15989ad26658b569fb886f66440bdf12f1a8585856040516105f993929190610ec9565b60405180910390a250505050565b60016020528060005260406000206000915054906101000a900460ff1681565b600060205280600052604060002060009150905080600001549080600101549080600201805461065690611117565b80601f016020809104026020016040519081016040528092919081815260200182805461068290611117565b80156106cf5780601f106106a4576101008083540402835291602001916106cf565b820191906000526020600020905b8154815290600101906020018083116106b257829003601f168201915b5050505050908060030160009054906101000a900460ff16908060040154905085565b600360009054906101000a900473ffffffffffffffffffffffffffffffffffffffff1673ffffffffffffffffffffffffffffffffffffffff163373ffffffffffffffffffffffffffffffffffffffff1614610782576040517f08c379a000000000000000000000000000000000000000000000000000000000815260040161077990610f76565b60405180910390fd5b6001600260008373ffffffffffffffffffffffffffffffffffffffff1673ffffffffffffffffffffffffffffffffffffffff16815260200190815260200160002060006101000a81548160ff02191690831515021790555050565b600260003373ffffffffffffffffffffffffffffffffffffffff1673ffffffffffffffffffffffffffffffffffffffff16815260200190815260200160002060009054906101000a900460ff16610869576040517f08c379a000000000000000000000000000000000000000000000000000000000815260040161086090610f56565b60405180910390fd5b600160008083815260200190815260200160002060030160006101000a81548160ff021916908315150217905550807f02b361dc7fecd907e8934f29b2dd7174cbe4583f93b00f5bee189d194ea5b7f0336040516108c79190610e4c565b60405180910390a250565b60055481565b600360009054906101000a900473ffffffffffffffffffffffffffffffffffffffff1681565b82805461090a90611117565b90600052602060002090601f01602090048101928261092c5760008555610973565b82601f1061094557805160ff1916838001178555610973565b82800160010185558215610973579182015b82811115610972578251825591602001919060010190610957565b5b5090506109809190610984565b5090565b5b8082111561099d576000816000905550600101610985565b5090565b6000813590506109b081611201565b92915050565b6000819050826040600202820111156109ce57600080fd5b92915050565b6000819050826020600202820111156109ec57600080fd5b92915050565b600081519050610a0181611218565b92915050565b600081359050610a168161122f565b92915050565b60008083601f840112610a2e57600080fd5b8235905067ffffffffffffffff811115610a4757600080fd5b602083019150836001820283011115610a5f57600080fd5b9250929050565b600081359050610a7581611246565b92915050565b600060208284031215610a8d57600080fd5b6000610a9b848285016109a1565b91505092915050565b600060208284031215610ab657600080fd5b6000610ac4848285016109f2565b91505092915050565b600060208284031215610adf57600080fd5b6000610aed84828501610a07565b91505092915050565b60008060008060608587031215610b0c57600080fd5b6000610b1a87828801610a07565b945050602085013567ffffffffffffffff811115610b3757600080fd5b610b4387828801610a1c565b93509350506040610b5687828801610a07565b91505092959194509250565b600060208284031215610b7457600080fd5b6000610b8284828501610a66565b91505092915050565b60008060008060006101608688031215610ba457600080fd5b6000610bb288828901610a66565b9550506020610bc3888289016109d4565b9450506060610bd4888289016109b6565b93505060e0610be5888289016109d4565b925050610120610bf7888289016109d4565b9150509295509295909350565b6000610c108383610c8a565b60408301905092915050565b610c258161105f565b82525050565b610c3481611015565b610c3e8184611038565b9250610c498261100b565b8060005b83811015610c8257610c5f8284611054565b610c698782610c04565b9650610c748361102b565b925050600181019050610c4d565b505050505050565b610c96604083836110d5565b5050565b610ca6604083836110d5565b5050565b610cb381611071565b82525050565b610cc28161107d565b82525050565b610cd1816110b1565b82525050565b6000610ce38385611043565b9350610cf08385846110d5565b610cf9836111f0565b840190509392505050565b6000610d0f82611020565b610d198185611043565b9350610d298185602086016110e4565b610d32816111f0565b840191505092915050565b6000610d4a601283611043565b91507f4475706c696361746520646574656374656400000000000000000000000000006000830152602082019050919050565b6000610d8a601283611043565b91507f496e76616c696420636f6d6d69746d656e7400000000000000000000000000006000830152602082019050919050565b6000610dca600b83611043565b91507f4e6f74206f6666696365720000000000000000000000000000000000000000006000830152602082019050919050565b6000610e0a600983611043565b91507f4e6f742061646d696e00000000000000000000000000000000000000000000006000830152602082019050919050565b610e46816110a7565b82525050565b6000602082019050610e616000830184610c1c565b92915050565b600061014082019050610e7d6000830187610c9a565b610e8a6040830186610c2b565b610e9760c0830185610c9a565b610ea5610100830184610c9a565b95945050505050565b6000602082019050610ec36000830184610caa565b92915050565b6000604082019050610ede6000830186610cb9565b8181036020830152610ef1818486610cd7565b9050949350505050565b6000602082019050610f106000830184610cc8565b92915050565b60006020820190508181036000830152610f2f81610d3d565b9050919050565b60006020820190508181036000830152610f4f81610d7d565b9050919050565b60006020820190508181036000830152610f6f81610dbd565b9050919050565b60006020820190508181036000830152610f8f81610dfd565b9050919050565b6000602082019050610fab6000830184610e3d565b92915050565b600060a082019050610fc66000830188610e3d565b610fd36020830187610cb9565b8181036040830152610fe58186610d04565b9050610ff46060830185610caa565b6110016080830184610cb9565b9695505050505050565b6000819050919050565b600060029050919050565b600081519050919050565b6000604082019050919050565b600081905092915050565b600082825260208201905092915050565b600082905092915050565b600061106a82611087565b9050919050565b60008115159050919050565b6000819050919050565b600073ffffffffffffffffffffffffffffffffffffffff82169050919050565b6000819050919050565b60006110bc826110c3565b9050919050565b60006110ce82611087565b9050919050565b82818337600083830152505050565b60005b838110156111025780820151818401526020810190506110e7565b83811115611111576000848401525b50505050565b6000600282049050600182168061112f57607f821691505b60208210811415611143576111426111c1565b5b50919050565b6000611154826110a7565b91507fffffffffffffffffffffffffffffffffffffffffffffffffffffffffffffffff82141561118757611186611192565b5b600182019050919050565b7f4e487b7100000000000000000000000000000000000000000000000000000000600052601160045260246000fd5b7f4e487b7100000000000000000000000000000000000000000000000000000000600052602260045260246000fd5b6000601f19601f8301169050919050565b61120a8161105f565b811461121557600080fd5b50565b61122181611071565b811461122c57600080fd5b50565b6112388161107d565b811461124357600080fd5b50565b61124f816110a7565b811461125a57600080fd5b5056fea2646970667358221220c88913b20e6c949346c58be0fa2f18c16ec79393aeae50a0ccd6a15d7b21680d64736f6c63430008000033",
  "immutableReferences": {},
  "source": "// SPDX-License-Identifier: MIT\r\npragma solidity >=0.4.22 <0.9.0;\r\n\r\ninterface IVerifier {\r\n    function verifyProof(\r\n        uint256[2] calldata a,\r\n        uint256[2][2] calldata b,\r\n        uint256[2] calldata c,\r\n        uint256[2] calldata input\r\n    ) external view returns (bool);\r\n}\r\n\r\ncontract RefugeeBiometric {\r\n    struct Refugee {\r\n        uint256 id;\r\n        bytes32 fuzzyHash;\r\n        string ipfsCID;\r\n        bool isSuspect;\r\n        bytes32 zkpCommitment;\r\n    }\r\n\r\n    mapping(uint256 => Refugee) public refugees;\r\n    mapping(bytes32 => bool) public fuzzyHashes;\r\n    mapping(address => bool) public officers;\r\n    address public admin;\r\n    IVerifier public verifier;\r\n    uint256 public refugeeCount;\r\n\r\n    event Registered(uint256 indexed id, bytes32 fuzzyHash, string ipfsCID);\r\n    event SuspectMarked(uint256 indexed id, address officer);\r\n\r\n    modifier onlyAdmin() {\r\n        require(msg.sender == admin, \"Not admin\");\r\n        _;\r\n    }\r\n\r\n    modifier onlyOfficer() {\r\n        require(officers[msg.sender], \"Not officer\");\r\n        _;\r\n    }\r\n\r\n    constructor(address _verifier) public {\r\n        require(_verifier != address(0), \"Invalid verifier address\");\r\n        admin = msg.sender;\r\n        verifier = IVerifier(_verifier);\r\n    }\r\n\r\n    function addOfficer(address _officer) external onlyAdmin {\r\n        officers[_officer] = true;\r\n    }\r\n\r\n    function register(\r\n        bytes32 _fuzzyHash,\r\n        string calldata _ipfsCID,\r\n        bytes32 _commitment\r\n    ) external onlyOfficer {\r\n        require(!fuzzyHashes[_fuzzyHash], \"Duplicate detected\");\r\n        refugeeCount++;\r\n        refugees[refugeeCount] = Refugee(\r\n            refugeeCount,\r\n            _fuzzyHash,\r\n            _ipfsCID,\r\n            false,\r\n            _commitment\r\n        );\r\n        fuzzyHashes[_fuzzyHash] = true;\r\n        emit Registered(refugeeCount, _fuzzyHash, _ipfsCID);\r\n    }\r\n\r\n    function markSuspect(uint256 _id) external onlyOfficer {\r\n        refugees[_id].isSuspect = true;\r\n        emit SuspectMarked(_id, msg.sender);\r\n    }\r\n\r\n    function verifyProof(\r\n        uint256 _id,\r\n        uint256[2] calldata a,\r\n        uint256[2][2] calldata b,\r\n        uint256[2] calldata c,\r\n        uint256[2] calldata input\r\n    ) external view returns (bool) {\r\n        require(input[0] == uint256(refugees[_id].zkpCommitment), \"Invalid commitment\");\r\n        return verifier.verifyProof(a, b, c, input);\r\n    }\r\n}\r\n",
  "sourcePath": "D:\\SRP\\contracts\\RefugeeBiometric.sol",
  "compiler": {
    "name": "solc",
    "version": "0.8.0+commit.c7dfd78e.Emscripten.clang"
  },
  "schemaVersion": "3.4.16",
  "updatedAt": "2025-04-12T09:59:14.342Z",
  "networkType": "ethereum",
  "devdoc": {
    "kind": "dev",
    "methods": {},
    "version": 1
  },
  "userdoc": {
    "kind": "user",
    "methods": {},
    "version": 1
  }
}