{
  "contractName": "RefugeeBiometric",
  "abi": [
    {
      "constant": true,
      "inputs": [],
      "name": "refugeeCount",
      "outputs": [
        {
          "name": "",
          "type": "uint256"
        }
      ],
      "payable": false,
      "stateMutability": "view",
      "type": "function"
    },
    {
      "anonymous": false,
      "inputs": [
        {
          "indexed": false,
          "name": "id",
          "type": "uint256"
        },
        {
          "indexed": false,
          "name": "name",
          "type": "string"
        },
        {
          "indexed": false,
          "name": "biometricHash",
          "type": "string"
        }
      ],
      "name": "DataAdded",
      "type": "event"
    },
    {
      "constant": false,
      "inputs": [
        {
          "name": "_name",
          "type": "string"
        },
        {
          "name": "_biometricHash",
          "type": "string"
        }
      ],
      "name": "addBiometricData",
      "outputs": [],
      "payable": false,
      "stateMutability": "nonpayable",
      "type": "function"
    },
    {
      "constant": true,
      "inputs": [
        {
          "name": "_id",
          "type": "uint256"
        }
      ],
      "name": "getBiometricData",
      "outputs": [
        {
          "name": "",
          "type": "uint256"
        },
        {
          "name": "",
          "type": "string"
        },
        {
          "name": "",
          "type": "string"
        }
      ],
      "payable": false,
      "stateMutability": "view",
      "type": "function"
    }
  ],
  "bytecode": "0x608060405234801561001057600080fd5b50610740806100206000396000f3fe608060405260043610610051576000357c01000000000000000000000000000000000000000000000000000000009004806366ad25df14610056578063b0027bf61461017d578063e4b0f13e146102dc575b600080fd5b34801561006257600080fd5b5061008f6004803603602081101561007957600080fd5b8101908080359060200190929190505050610307565b604051808481526020018060200180602001838103835285818151815260200191508051906020019080838360005b838110156100d95780820151818401526020810190506100be565b50505050905090810190601f1680156101065780820380516001836020036101000a031916815260200191505b50838103825284818151815260200191508051906020019080838360005b8381101561013f578082015181840152602081019050610124565b50505050905090810190601f16801561016c5780820380516001836020036101000a031916815260200191505b509550505050505060405180910390f35b34801561018957600080fd5b506102da600480360360408110156101a057600080fd5b81019080803590602001906401000000008111156101bd57600080fd5b8201836020820111156101cf57600080fd5b803590602001918460018302840111640100000000831117156101f157600080fd5b91908080601f016020809104026020016040519081016040528093929190818152602001838380828437600081840152601f19601f8201169050808301925050505050505091929192908035906020019064010000000081111561025457600080fd5b82018360208201111561026657600080fd5b8035906020019184600183028401116401000000008311171561028857600080fd5b91908080601f016020809104026020016040519081016040528093929190818152602001838380828437600081840152601f19601f8201169050808301925050505050505091929192905050506104a5565b005b3480156102e857600080fd5b506102f1610647565b6040518082815260200191505060405180910390f35b600060608061031461064d565b6000808681526020019081526020016000206060604051908101604052908160008201548152602001600182018054600181600116156101000203166002900480601f0160208091040260200160405190810160405280929190818152602001828054600181600116156101000203166002900480156103d55780601f106103aa576101008083540402835291602001916103d5565b820191906000526020600020905b8154815290600101906020018083116103b857829003601f168201915b50505050508152602001600282018054600181600116156101000203166002900480601f0160208091040260200160405190810160405280929190818152602001828054600181600116156101000203166002900480156104775780601f1061044c57610100808354040283529160200191610477565b820191906000526020600020905b81548152906001019060200180831161045a57829003601f168201915b5050505050815250509050806000015181602001518260400151819150809050935093509350509193909250565b600160008154809291906001019190505550606060405190810160405280600154815260200183815260200182815250600080600154815260200190815260200160002060008201518160000155602082015181600101908051906020019061050f92919061066f565b50604082015181600201908051906020019061052c92919061066f565b509050507fcfabcde00d6a8dd6c0a3364f3848a02e0954da766b827254af55c8a5e2fc6b546001548383604051808481526020018060200180602001838103835285818151815260200191508051906020019080838360005b838110156105a0578082015181840152602081019050610585565b50505050905090810190601f1680156105cd5780820380516001836020036101000a031916815260200191505b50838103825284818151815260200191508051906020019080838360005b838110156106065780820151818401526020810190506105eb565b50505050905090810190601f1680156106335780820380516001836020036101000a031916815260200191505b509550505050505060405180910390a15050565b60015481565b6060604051908101604052806000815260200160608152602001606081525090565b828054600181600116156101000203166002900490600052602060002090601f016020900481019282601f106106b057805160ff19168380011785556106de565b828001600101855582156106de579182015b828111156106dd5782518255916020019190600101906106c2565b5b5090506106eb91906106ef565b5090565b61071191905b8082111561070d5760008160009055506001016106f5565b5090565b9056fea165627a7a723058202ebaf446c2e227c10f241d4cc2cfd1ae98e063e1aae42c247649325d8d6951bc0029",
  "source": "// SPDX-License-Identifier: MIT\npragma solidity >=0.4.22 <0.9.0;\n\ncontract RefugeeBiometric {\n    struct BiometricData {\n        uint id;\n        string name;\n        string biometricHash; // Store hashed biometric data (not raw)\n    }\n\n    mapping(uint => BiometricData) private refugees;\n    uint public refugeeCount;\n\n    event DataAdded(uint id, string name, string biometricHash);\n\n    function addBiometricData(\n        string memory _name,\n        string memory _biometricHash\n    ) public {\n        refugeeCount++;\n        refugees[refugeeCount] = BiometricData(\n            refugeeCount,\n            _name,\n            _biometricHash\n        );\n        emit DataAdded(refugeeCount, _name, _biometricHash);\n    }\n\n    function getBiometricData(uint _id) public view returns (\n        uint,\n        string memory,\n        string memory\n    ) {\n        BiometricData memory data = refugees[_id];\n        return (data.id, data.name, data.biometricHash);\n    }\n}",
  "sourcePath": "D:\\Git Repository\\SRP\\contracts\\RefugeeBiometric.sol",
  "compiler": {
    "name": "solc",
    "version": "0.5.1+commit.c8a2cb62.Emscripten.clang"
  },
  "schemaVersion": "3.4.16",
  "updatedAt": "2025-04-03T13:52:48.140Z",
  "networkType": "ethereum",
  "devdoc": {
    "methods": {}
  },
  "userdoc": {
    "methods": {}
  }
}