{
  "contractName": "RefugeeBiometric",
  "abi": [
    {
      "inputs": [
        {
          "internalType": "address",
          "name": "_verifier",
          "type": "address"
        }
      ],
      "stateMutability": "nonpayable",
      "type": "constructor"
    },
    {
      "anonymous": false,
      "inputs": [
        {
          "indexed": false,
          "internalType": "uint256",
          "name": "id",
          "type": "uint256"
        },
        {
          "indexed": false,
          "internalType": "string",
          "name": "ipfsCID",
          "type": "string"
        },
        {
          "indexed": false,
          "internalType": "bool",
          "name": "isSuspect",
          "type": "bool"
        },
        {
          "indexed": false,
          "internalType": "uint256",
          "name": "timestamp",
          "type": "uint256"
        }
      ],
      "name": "RefugeeUpdated",
      "type": "event"
    },
    {
      "anonymous": false,
      "inputs": [
        {
          "indexed": true,
          "internalType": "uint256",
          "name": "id",
          "type": "uint256"
        },
        {
          "indexed": false,
          "internalType": "bytes32",
          "name": "fuzzyHash",
          "type": "bytes32"
        },
        {
          "indexed": false,
          "internalType": "string",
          "name": "ipfsCID",
          "type": "string"
        },
        {
          "indexed": false,
          "internalType": "uint256",
          "name": "timestamp",
          "type": "uint256"
        }
      ],
      "name": "Registered",
      "type": "event"
    },
    {
      "inputs": [],
      "name": "admin",
      "outputs": [
        {
          "internalType": "address",
          "name": "",
          "type": "address"
        }
      ],
      "stateMutability": "view",
      "type": "function",
      "constant": true
    },
    {
      "inputs": [
        {
          "internalType": "bytes32",
          "name": "",
          "type": "bytes32"
        }
      ],
      "name": "fuzzyHashes",
      "outputs": [
        {
          "internalType": "bool",
          "name": "",
          "type": "bool"
        }
      ],
      "stateMutability": "view",
      "type": "function",
      "constant": true
    },
    {
      "inputs": [
        {
          "internalType": "address",
          "name": "",
          "type": "address"
        }
      ],
      "name": "officers",
      "outputs": [
        {
          "internalType": "bool",
          "name": "",
          "type": "bool"
        }
      ],
      "stateMutability": "view",
      "type": "function",
      "constant": true
    },
    {
      "inputs": [],
      "name": "refugeeCount",
      "outputs": [
        {
          "internalType": "uint256",
          "name": "",
          "type": "uint256"
        }
      ],
      "stateMutability": "view",
      "type": "function",
      "constant": true
    },
    {
      "inputs": [
        {
          "internalType": "uint256",
          "name": "",
          "type": "uint256"
        }
      ],
      "name": "refugees",
      "outputs": [
        {
          "internalType": "uint256",
          "name": "id",
          "type": "uint256"
        },
        {
          "internalType": "bytes32",
          "name": "fuzzyHash",
          "type": "bytes32"
        },
        {
          "internalType": "string",
          "name": "ipfsCID",
          "type": "string"
        },
        {
          "internalType": "bool",
          "name": "isSuspect",
          "type": "bool"
        },
        {
          "internalType": "bytes32",
          "name": "zkpCommitment",
          "type": "bytes32"
        },
        {
          "internalType": "uint256",
          "name": "timestamp",
          "type": "uint256"
        }
      ],
      "stateMutability": "view",
      "type": "function",
      "constant": true
    },
    {
      "inputs": [],
      "name": "verifier",
      "outputs": [
        {
          "internalType": "contract IVerifier",
          "name": "",
          "type": "address"
        }
      ],
      "stateMutability": "view",
      "type": "function",
      "constant": true
    },
    {
      "inputs": [
        {
          "internalType": "address",
          "name": "_officer",
          "type": "address"
        }
      ],
      "name": "addOfficer",
      "outputs": [],
      "stateMutability": "nonpayable",
      "type": "function"
    },
    {
      "inputs": [
        {
          "internalType": "bytes32",
          "name": "_fuzzyHash",
          "type": "bytes32"
        },
        {
          "internalType": "string",
          "name": "_ipfsCID",
          "type": "string"
        },
        {
          "internalType": "bytes32",
          "name": "_commitment",
          "type": "bytes32"
        }
      ],
      "name": "register",
      "outputs": [],
      "stateMutability": "nonpayable",
      "type": "function"
    },
    {
      "inputs": [
        {
          "internalType": "uint256",
          "name": "id",
          "type": "uint256"
        },
        {
          "internalType": "string",
          "name": "newIpfsCID",
          "type": "string"
        }
      ],
      "name": "markSuspect",
      "outputs": [],
      "stateMutability": "nonpayable",
      "type": "function"
    },
    {
      "inputs": [
        {
          "internalType": "uint256",
          "name": "_id",
          "type": "uint256"
        },
        {
          "internalType": "uint256[2]",
          "name": "a",
          "type": "uint256[2]"
        },
        {
          "internalType": "uint256[2][2]",
          "name": "b",
          "type": "uint256[2][2]"
        },
        {
          "internalType": "uint256[2]",
          "name": "c",
          "type": "uint256[2]"
        },
        {
          "internalType": "uint256[2]",
          "name": "input",
          "type": "uint256[2]"
        }
      ],
      "name": "verifyProof",
      "outputs": [
        {
          "internalType": "bool",
          "name": "",
          "type": "bool"
        }
      ],
      "stateMutability": "view",
      "type": "function",
      "constant": true
    }
  ],
  "bytecode": "0x60806040523480156200001157600080fd5b50604051620017213803806200172183398181016040528101906200003791906200014a565b600073ffffffffffffffffffffffffffffffffffffffff168173ffffffffffffffffffffffffffffffffffffffff161415620000aa576040517f08c379a0000000000000000000000000000000000000000000000000000000008152600401620000a190620001b8565b60405180910390fd5b33600360006101000a81548173ffffffffffffffffffffffffffffffffffffffff021916908373ffffffffffffffffffffffffffffffffffffffff16021790555080600460006101000a81548173ffffffffffffffffffffffffffffffffffffffff021916908373ffffffffffffffffffffffffffffffffffffffff1602179055505062000239565b60008151905062000144816200021f565b92915050565b6000602082840312156200015d57600080fd5b60006200016d8482850162000133565b91505092915050565b600062000185601883620001da565b91507f496e76616c6964207665726966696572206164647265737300000000000000006000830152602082019050919050565b60006020820190508181036000830152620001d38162000176565b9050919050565b600082825260208201905092915050565b6000620001f882620001ff565b9050919050565b600073ffffffffffffffffffffffffffffffffffffffff82169050919050565b6200022a81620001eb565b81146200023657600080fd5b50565b6114d880620002496000396000f3fe608060405234801561001057600080fd5b506004361061009e5760003560e01c80636a0cf51a116100665780636a0cf51a146101595780639a180f7e14610189578063d9803cb2146101be578063e4b0f13e146101da578063f851a440146101f85761009e565b806306e3a448146100a3578063084866dd146100bf5780632b7ac3f3146100ef57806353a7e9d41461010d57806355bf94fc1461013d575b600080fd5b6100bd60048036038101906100b89190610c9d565b610216565b005b6100d960048036038101906100d49190610b14565b610323565b6040516100e69190610fdb565b60405180910390f35b6100f7610343565b6040516101049190611036565b60405180910390f35b61012760048036038101906101229190610c24565b610369565b6040516101349190610fdb565b60405180910390f35b61015760048036038101906101529190610b8f565b6104bf565b005b610173600480360381019061016e9190610b66565b610727565b6040516101809190610fdb565b60405180910390f35b6101a3600480360381019061019e9190610bfb565b610747565b6040516101b59695949392919061110c565b60405180910390f35b6101d860048036038101906101d39190610b14565b610818565b005b6101e2610903565b6040516101ef91906110f1565b60405180910390f35b610200610909565b60405161020d9190610f79565b60405180910390f35b600080600084815260200190815260200160002060000154141561026f576040517f08c379a0000000000000000000000000000000000000000000000000000000008152600401610266906110b1565b60405180910390fd5b600160008084815260200190815260200160002060030160006101000a81548160ff0219169083151502179055508060008084815260200190815260200160002060020190805190602001906102c692919061092f565b5042600080848152602001908152602001600020600501819055507f6b925e189a7b963b9f196b343804b0874a0fab0263d673484717a033894b05c882826001426040516103179493929190611174565b60405180910390a15050565b60026020528060005260406000206000915054906101000a900460ff1681565b600460009054906101000a900473ffffffffffffffffffffffffffffffffffffffff1681565b60008060008781526020019081526020016000206004015460001c826000600281106103be577f4e487b7100000000000000000000000000000000000000000000000000000000600052603260045260246000fd5b602002013514610403576040517f08c379a00000000000000000000000000000000000000000000000000000000081526004016103fa90611071565b60405180910390fd5b600460009054906101000a900473ffffffffffffffffffffffffffffffffffffffff1673ffffffffffffffffffffffffffffffffffffffff1663f5c9d69e868686866040518563ffffffff1660e01b81526004016104649493929190610f94565b60206040518083038186803b15801561047c57600080fd5b505afa158015610490573d6000803e3d6000fd5b505050506040513d601f19601f820116820180604052508101906104b49190610b3d565b905095945050505050565b600260003373ffffffffffffffffffffffffffffffffffffffff1673ffffffffffffffffffffffffffffffffffffffff16815260200190815260200160002060009054906101000a900460ff1661054b576040517f08c379a000000000000000000000000000000000000000000000000000000000815260040161054290611091565b60405180910390fd5b6001600085815260200190815260200160002060009054906101000a900460ff16156105ac576040517f08c379a00000000000000000000000000000000000000000000000000000000081526004016105a390611051565b60405180910390fd5b600560008154809291906105bf9061135f565b91905055506040518060c00160405280600554815260200185815260200184848080601f016020809104026020016040519081016040528093929190818152602001838380828437600081840152601f19601f8201169050808301925050505050505081526020016000151581526020018281526020014281525060008060055481526020019081526020016000206000820151816000015560208201518160010155604082015181600201908051906020019061067e92919061092f565b5060608201518160030160006101000a81548160ff0219169083151502179055506080820151816004015560a08201518160050155905050600180600086815260200190815260200160002060006101000a81548160ff0219169083151502179055506005547fb1f1861b0f6979294fbb3b2367ba419217dfea03fa4626b0d6d786e3a39bc0e0858585426040516107199493929190610ff6565b60405180910390a250505050565b60016020528060005260406000206000915054906101000a900460ff1681565b60006020528060005260406000206000915090508060000154908060010154908060020180546107769061132d565b80601f01602080910402602001604051908101604052809291908181526020018280546107a29061132d565b80156107ef5780601f106107c4576101008083540402835291602001916107ef565b820191906000526020600020905b8154815290600101906020018083116107d257829003601f168201915b5050505050908060030160009054906101000a900460ff16908060040154908060050154905086565b600360009054906101000a900473ffffffffffffffffffffffffffffffffffffffff1673ffffffffffffffffffffffffffffffffffffffff163373ffffffffffffffffffffffffffffffffffffffff16146108a8576040517f08c379a000000000000000000000000000000000000000000000000000000000815260040161089f906110d1565b60405180910390fd5b6001600260008373ffffffffffffffffffffffffffffffffffffffff1673ffffffffffffffffffffffffffffffffffffffff16815260200190815260200160002060006101000a81548160ff02191690831515021790555050565b60055481565b600360009054906101000a900473ffffffffffffffffffffffffffffffffffffffff1681565b82805461093b9061132d565b90600052602060002090601f01602090048101928261095d57600085556109a4565b82601f1061097657805160ff19168380011785556109a4565b828001600101855582156109a4579182015b828111156109a3578251825591602001919060010190610988565b5b5090506109b191906109b5565b5090565b5b808211156109ce5760008160009055506001016109b6565b5090565b60006109e56109e0846111f1565b6111c0565b9050828152602081018484840111156109fd57600080fd5b610a088482856112eb565b509392505050565b600081359050610a1f81611446565b92915050565b600081905082604060020282011115610a3d57600080fd5b92915050565b600081905082602060020282011115610a5b57600080fd5b92915050565b600081519050610a708161145d565b92915050565b600081359050610a8581611474565b92915050565b60008083601f840112610a9d57600080fd5b8235905067ffffffffffffffff811115610ab657600080fd5b602083019150836001820283011115610ace57600080fd5b9250929050565b600082601f830112610ae657600080fd5b8135610af68482602086016109d2565b91505092915050565b600081359050610b0e8161148b565b92915050565b600060208284031215610b2657600080fd5b6000610b3484828501610a10565b91505092915050565b600060208284031215610b4f57600080fd5b6000610b5d84828501610a61565b91505092915050565b600060208284031215610b7857600080fd5b6000610b8684828501610a76565b91505092915050565b60008060008060608587031215610ba557600080fd5b6000610bb387828801610a76565b945050602085013567ffffffffffffffff811115610bd057600080fd5b610bdc87828801610a8b565b93509350506040610bef87828801610a76565b91505092959194509250565b600060208284031215610c0d57600080fd5b6000610c1b84828501610aff565b91505092915050565b60008060008060006101608688031215610c3d57600080fd5b6000610c4b88828901610aff565b9550506020610c5c88828901610a43565b9450506060610c6d88828901610a25565b93505060e0610c7e88828901610a43565b925050610120610c9088828901610a43565b9150509295509295909350565b60008060408385031215610cb057600080fd5b6000610cbe85828601610aff565b925050602083013567ffffffffffffffff811115610cdb57600080fd5b610ce785828601610ad5565b9150509250929050565b6000610cfd8383610d77565b60408301905092915050565b610d1281611275565b82525050565b610d218161122b565b610d2b818461124e565b9250610d3682611221565b8060005b83811015610d6f57610d4c828461126a565b610d568782610cf1565b9650610d6183611241565b925050600181019050610d3a565b505050505050565b610d83604083836112eb565b5050565b610d93604083836112eb565b5050565b610da081611287565b82525050565b610daf81611293565b82525050565b610dbe816112c7565b82525050565b6000610dd08385611259565b9350610ddd8385846112eb565b610de683611435565b840190509392505050565b6000610dfc82611236565b610e068185611259565b9350610e168185602086016112fa565b610e1f81611435565b840191505092915050565b6000610e37601283611259565b91507f4475706c696361746520646574656374656400000000000000000000000000006000830152602082019050919050565b6000610e77601283611259565b91507f496e76616c696420636f6d6d69746d656e7400000000000000000000000000006000830152602082019050919050565b6000610eb7600b83611259565b91507f4e6f74206f6666696365720000000000000000000000000000000000000000006000830152602082019050919050565b6000610ef7601683611259565b91507f5265667567656520646f6573206e6f74206578697374000000000000000000006000830152602082019050919050565b6000610f37600983611259565b91507f4e6f742061646d696e00000000000000000000000000000000000000000000006000830152602082019050919050565b610f73816112bd565b82525050565b6000602082019050610f8e6000830184610d09565b92915050565b600061014082019050610faa6000830187610d87565b610fb76040830186610d18565b610fc460c0830185610d87565b610fd2610100830184610d87565b95945050505050565b6000602082019050610ff06000830184610d97565b92915050565b600060608201905061100b6000830187610da6565b818103602083015261101e818587610dc4565b905061102d6040830184610f6a565b95945050505050565b600060208201905061104b6000830184610db5565b92915050565b6000602082019050818103600083015261106a81610e2a565b9050919050565b6000602082019050818103600083015261108a81610e6a565b9050919050565b600060208201905081810360008301526110aa81610eaa565b9050919050565b600060208201905081810360008301526110ca81610eea565b9050919050565b600060208201905081810360008301526110ea81610f2a565b9050919050565b60006020820190506111066000830184610f6a565b92915050565b600060c0820190506111216000830189610f6a565b61112e6020830188610da6565b81810360408301526111408187610df1565b905061114f6060830186610d97565b61115c6080830185610da6565b61116960a0830184610f6a565b979650505050505050565b60006080820190506111896000830187610f6a565b818103602083015261119b8186610df1565b90506111aa6040830185610d97565b6111b76060830184610f6a565b95945050505050565b6000604051905081810181811067ffffffffffffffff821117156111e7576111e6611406565b5b8060405250919050565b600067ffffffffffffffff82111561120c5761120b611406565b5b601f19601f8301169050602081019050919050565b6000819050919050565b600060029050919050565b600081519050919050565b6000604082019050919050565b600081905092915050565b600082825260208201905092915050565b600082905092915050565b60006112808261129d565b9050919050565b60008115159050919050565b6000819050919050565b600073ffffffffffffffffffffffffffffffffffffffff82169050919050565b6000819050919050565b60006112d2826112d9565b9050919050565b60006112e48261129d565b9050919050565b82818337600083830152505050565b60005b838110156113185780820151818401526020810190506112fd565b83811115611327576000848401525b50505050565b6000600282049050600182168061134557607f821691505b60208210811415611359576113586113d7565b5b50919050565b600061136a826112bd565b91507fffffffffffffffffffffffffffffffffffffffffffffffffffffffffffffffff82141561139d5761139c6113a8565b5b600182019050919050565b7f4e487b7100000000000000000000000000000000000000000000000000000000600052601160045260246000fd5b7f4e487b7100000000000000000000000000000000000000000000000000000000600052602260045260246000fd5b7f4e487b7100000000000000000000000000000000000000000000000000000000600052604160045260246000fd5b6000601f19601f8301169050919050565b61144f81611275565b811461145a57600080fd5b50565b61146681611287565b811461147157600080fd5b50565b61147d81611293565b811461148857600080fd5b50565b611494816112bd565b811461149f57600080fd5b5056fea2646970667358221220d1bf57440c5c16d669f78d1f823c92d3821b4136f18149305d1a4f24c02560d464736f6c63430008000033",
  "immutableReferences": {},
  "source": "// SPDX-License-Identifier: MIT\r\npragma solidity >=0.4.22 <0.9.0;\r\n\r\ninterface IVerifier {\r\n    function verifyProof(\r\n        uint256[2] calldata a,\r\n        uint256[2][2] calldata b,\r\n        uint256[2] calldata c,\r\n        uint256[2] calldata input\r\n    ) external view returns (bool);\r\n}\r\n\r\ncontract RefugeeBiometric {\r\n    struct Refugee {\r\n        uint256 id;\r\n        bytes32 fuzzyHash;\r\n        string ipfsCID;\r\n        bool isSuspect;\r\n        bytes32 zkpCommitment;\r\n          uint256 timestamp; \r\n    }\r\n\r\n    mapping(uint256 => Refugee) public refugees;\r\n    mapping(bytes32 => bool) public fuzzyHashes;\r\n    mapping(address => bool) public officers;\r\n    address public admin;\r\n    IVerifier public verifier;\r\n    uint256 public refugeeCount;\r\n\r\n    event Registered(uint256 indexed id, bytes32 fuzzyHash, string ipfsCID,uint256 timestamp);\r\n    event RefugeeUpdated(uint256 id, string ipfsCID, bool isSuspect, uint256 timestamp);\r\n\r\n\r\n    modifier onlyAdmin() {\r\n        require(msg.sender == admin, \"Not admin\");\r\n        _;\r\n    }\r\n\r\n    modifier onlyOfficer() {\r\n        require(officers[msg.sender], \"Not officer\");\r\n        _;\r\n    }\r\n\r\n    constructor(address _verifier) public {\r\n        require(_verifier != address(0), \"Invalid verifier address\");\r\n        admin = msg.sender;\r\n        verifier = IVerifier(_verifier);\r\n    }\r\n\r\n    function addOfficer(address _officer) external onlyAdmin {\r\n        officers[_officer] = true;\r\n    }\r\n\r\n    function register(\r\n        bytes32 _fuzzyHash,\r\n        string calldata _ipfsCID,\r\n        bytes32 _commitment\r\n    ) external onlyOfficer {\r\n        require(!fuzzyHashes[_fuzzyHash], \"Duplicate detected\");\r\n        refugeeCount++;\r\n        refugees[refugeeCount] = Refugee(\r\n            refugeeCount,\r\n            _fuzzyHash,\r\n            _ipfsCID,\r\n            false,\r\n            _commitment,\r\n            block.timestamp\r\n        );\r\n        fuzzyHashes[_fuzzyHash] = true;\r\n        emit Registered(refugeeCount, _fuzzyHash, _ipfsCID,block.timestamp);\r\n    }\r\n\r\n function markSuspect(uint256 id, string memory newIpfsCID) public {\r\n        require(refugees[id].id != 0, \"Refugee does not exist\");\r\n        refugees[id].isSuspect = true;\r\n        refugees[id].ipfsCID = newIpfsCID;\r\n        refugees[id].timestamp = block.timestamp; // Update the timestamp\r\n        emit RefugeeUpdated(id, newIpfsCID, true, block.timestamp);\r\n    }\r\n\r\n    function verifyProof(\r\n        uint256 _id,\r\n        uint256[2] calldata a,\r\n        uint256[2][2] calldata b,\r\n        uint256[2] calldata c,\r\n        uint256[2] calldata input\r\n    ) external view returns (bool) {\r\n        require(input[0] == uint256(refugees[_id].zkpCommitment), \"Invalid commitment\");\r\n        return verifier.verifyProof(a, b, c, input);\r\n    }\r\n}\r\n",
  "sourcePath": "D:\\Git Repository\\SRP\\contracts\\RefugeeBiometric.sol",
  "compiler": {
    "name": "solc",
    "version": "0.8.0+commit.c7dfd78e.Emscripten.clang"
  },
  "schemaVersion": "3.4.16",
  "updatedAt": "2025-04-13T20:30:24.559Z",
  "networkType": "ethereum",
  "devdoc": {
    "kind": "dev",
    "methods": {},
    "version": 1
  },
  "userdoc": {
    "kind": "user",
    "methods": {},
    "version": 1
  }
}